{
  "_format": "hh-sol-artifact-1",
  "contractName": "WavePortal",
  "sourceName": "contracts/WavePortal.sol",
  "abi": [
    {
      "inputs": [],
      "stateMutability": "nonpayable",
      "type": "constructor"
    },
    {
      "anonymous": false,
      "inputs": [
        {
          "indexed": true,
          "internalType": "address",
          "name": "from",
          "type": "address"
        },
        {
          "indexed": false,
          "internalType": "uint256",
          "name": "timestamp",
          "type": "uint256"
        },
        {
          "indexed": false,
          "internalType": "string",
          "name": "animal",
          "type": "string"
        }
      ],
      "name": "NewFavoriteAnimal",
      "type": "event"
    },
    {
      "inputs": [],
      "name": "getAllFavoriteAnimals",
      "outputs": [
        {
          "components": [
            {
              "internalType": "address",
              "name": "sender",
              "type": "address"
            },
            {
              "internalType": "uint256",
              "name": "timestamp",
              "type": "uint256"
            },
            {
              "internalType": "string",
              "name": "animal",
              "type": "string"
            }
          ],
          "internalType": "struct WavePortal.FavoriteAnimal[]",
          "name": "",
          "type": "tuple[]"
        }
      ],
      "stateMutability": "view",
      "type": "function"
    },
    {
      "inputs": [],
      "name": "getFavoriteAnimal",
      "outputs": [
        {
          "internalType": "string",
          "name": "",
          "type": "string"
        }
      ],
      "stateMutability": "view",
      "type": "function"
    },
    {
      "inputs": [],
      "name": "getTotalWaves",
      "outputs": [
        {
          "internalType": "uint256",
          "name": "",
          "type": "uint256"
        }
      ],
      "stateMutability": "view",
      "type": "function"
    },
    {
      "inputs": [
        {
          "internalType": "string",
          "name": "_animal",
          "type": "string"
        }
      ],
      "name": "wave",
      "outputs": [],
      "stateMutability": "nonpayable",
      "type": "function"
    }
  ],
  "bytecode": "0x608060405234801561001057600080fd5b50610d4f806100206000396000f3fe608060405234801561001057600080fd5b506004361061004c5760003560e01c80633f2a7d7814610051578063449d46c01461006f578063522a33ca1461008b5780639a2cdc08146100a9575b600080fd5b6100596100c7565b60405161006691906109a3565b60405180910390f35b61008960048036038101906100849190610796565b610218565b005b6100936103c7565b6040516100a091906109c5565b60405180910390f35b6100b16104dc565b6040516100be9190610a17565b60405180910390f35b60606002805480602002602001604051908101604052809291908181526020016000905b8282101561020f57838290600052602060002090600302016040518060600160405290816000820160009054906101000a900473ffffffffffffffffffffffffffffffffffffffff1673ffffffffffffffffffffffffffffffffffffffff1673ffffffffffffffffffffffffffffffffffffffff1681526020016001820154815260200160028201805461017e90610bf2565b80601f01602080910402602001604051908101604052809291908181526020018280546101aa90610bf2565b80156101f75780601f106101cc576101008083540402835291602001916101f7565b820191906000526020600020905b8154815290600101906020018083116101da57829003601f168201915b505050505081525050815260200190600101906100eb565b50505050905090565b600160008082825461022a9190610b1e565b9250508190555080600160003373ffffffffffffffffffffffffffffffffffffffff1673ffffffffffffffffffffffffffffffffffffffff168152602001908152602001600020908051906020019061028492919061068b565b50600260405180606001604052803373ffffffffffffffffffffffffffffffffffffffff16815260200142815260200183815250908060018154018082558091505060019003906000526020600020906003020160009091909190915060008201518160000160006101000a81548173ffffffffffffffffffffffffffffffffffffffff021916908373ffffffffffffffffffffffffffffffffffffffff16021790555060208201518160010155604082015181600201908051906020019061034e92919061068b565b5050503373ffffffffffffffffffffffffffffffffffffffff167fb1255db848a0f038fd6de58548abc2a599e2c92756d293823e66137f88cfda244283604051610399929190610a32565b60405180910390a26103c433604051806060016040528060268152602001610cf46026913983610527565b50565b60606000600160003373ffffffffffffffffffffffffffffffffffffffff1673ffffffffffffffffffffffffffffffffffffffff168152602001908152602001600020805461041590610bf2565b80601f016020809104026020016040519081016040528092919081815260200182805461044190610bf2565b801561048e5780601f106104635761010080835404028352916020019161048e565b820191906000526020600020905b81548152906001019060200180831161047157829003601f168201915b505050505090506104d5336040518060400160405280601a81526020017f2773206661766f7269746520616e696d616c206973207468652000000000000081525083610527565b8091505090565b600061051f6040518060400160405280601881526020017f5765206861766520256420746f74616c207761766573212000000000000000008152506000546105c6565b600054905090565b6105c183838360405160240161053f9392919061095e565b6040516020818303038152906040527ffb772265000000000000000000000000000000000000000000000000000000007bffffffffffffffffffffffffffffffffffffffffffffffffffffffff19166020820180517bffffffffffffffffffffffffffffffffffffffffffffffffffffffff8381831617835250505050610662565b505050565b61065e82826040516024016105dc9291906109e7565b6040516020818303038152906040527f9710a9d0000000000000000000000000000000000000000000000000000000007bffffffffffffffffffffffffffffffffffffffffffffffffffffffff19166020820180517bffffffffffffffffffffffffffffffffffffffffffffffffffffffff8381831617835250505050610662565b5050565b60008151905060006a636f6e736f6c652e6c6f679050602083016000808483855afa5050505050565b82805461069790610bf2565b90600052602060002090601f0160209004810192826106b95760008555610700565b82601f106106d257805160ff1916838001178555610700565b82800160010185558215610700579182015b828111156106ff5782518255916020019190600101906106e4565b5b50905061070d9190610711565b5090565b5b8082111561072a576000816000905550600101610712565b5090565b600061074161073c84610a87565b610a62565b90508281526020810184848401111561075957600080fd5b610764848285610bb0565b509392505050565b600082601f83011261077d57600080fd5b813561078d84826020860161072e565b91505092915050565b6000602082840312156107a857600080fd5b600082013567ffffffffffffffff8111156107c257600080fd5b6107ce8482850161076c565b91505092915050565b60006107e383836108f0565b905092915050565b6107f481610b74565b82525050565b61080381610b74565b82525050565b600061081482610ac8565b61081e8185610aeb565b93508360208202850161083085610ab8565b8060005b8581101561086c578484038952815161084d85826107d7565b945061085883610ade565b925060208a01995050600181019050610834565b50829750879550505050505092915050565b600061088982610ad3565b6108938185610afc565b93506108a3818560208601610bbf565b6108ac81610ce2565b840191505092915050565b60006108c282610ad3565b6108cc8185610b0d565b93506108dc818560208601610bbf565b6108e581610ce2565b840191505092915050565b600060608301600083015161090860008601826107eb565b50602083015161091b6020860182610940565b5060408301518482036040860152610933828261087e565b9150508091505092915050565b61094981610ba6565b82525050565b61095881610ba6565b82525050565b600060608201905061097360008301866107fa565b818103602083015261098581856108b7565b9050818103604083015261099981846108b7565b9050949350505050565b600060208201905081810360008301526109bd8184610809565b905092915050565b600060208201905081810360008301526109df81846108b7565b905092915050565b60006040820190508181036000830152610a0181856108b7565b9050610a10602083018461094f565b9392505050565b6000602082019050610a2c600083018461094f565b92915050565b6000604082019050610a47600083018561094f565b8181036020830152610a5981846108b7565b90509392505050565b6000610a6c610a7d565b9050610a788282610c24565b919050565b6000604051905090565b600067ffffffffffffffff821115610aa257610aa1610cb3565b5b610aab82610ce2565b9050602081019050919050565b6000819050602082019050919050565b600081519050919050565b600081519050919050565b6000602082019050919050565b600082825260208201905092915050565b600082825260208201905092915050565b600082825260208201905092915050565b6000610b2982610ba6565b9150610b3483610ba6565b9250827fffffffffffffffffffffffffffffffffffffffffffffffffffffffffffffffff03821115610b6957610b68610c55565b5b828201905092915050565b6000610b7f82610b86565b9050919050565b600073ffffffffffffffffffffffffffffffffffffffff82169050919050565b6000819050919050565b82818337600083830152505050565b60005b83811015610bdd578082015181840152602081019050610bc2565b83811115610bec576000848401525b50505050565b60006002820490506001821680610c0a57607f821691505b60208210811415610c1e57610c1d610c84565b5b50919050565b610c2d82610ce2565b810181811067ffffffffffffffff82111715610c4c57610c4b610cb3565b5b80604052505050565b7f4e487b7100000000000000000000000000000000000000000000000000000000600052601160045260246000fd5b7f4e487b7100000000000000000000000000000000000000000000000000000000600052602260045260246000fd5b7f4e487b7100000000000000000000000000000000000000000000000000000000600052604160045260246000fd5b6000601f19601f830116905091905056fe2068617320776176656421205468656972206661766f7269746520616e696d616c2069733a20a264697066735822122000cd1f536d0fb4c42de1aae630fe61e2a976f58bd71cfa3c09e904d84ad7dcb064736f6c63430008040033",
  "linkReferences": {},
  "deployedLinkReferences": {}
}