{
  "_format": "hh-sol-artifact-1",
  "contractName": "WavePortal",
  "sourceName": "contracts/WavePortal.sol",
  "abi": [
    {
      "inputs": [],
      "stateMutability": "payable",
      "type": "constructor"
    },
    {
      "anonymous": false,
      "inputs": [
        {
          "indexed": true,
          "internalType": "address",
          "name": "from",
          "type": "address"
        },
        {
          "indexed": false,
          "internalType": "uint256",
          "name": "timestamp",
          "type": "uint256"
        },
        {
          "indexed": false,
          "internalType": "string",
          "name": "animal",
          "type": "string"
        }
      ],
      "name": "NewFavoriteAnimal",
      "type": "event"
    },
    {
      "inputs": [],
      "name": "getAllFavoriteAnimals",
      "outputs": [
        {
          "components": [
            {
              "internalType": "address",
              "name": "sender",
              "type": "address"
            },
            {
              "internalType": "uint256",
              "name": "timestamp",
              "type": "uint256"
            },
            {
              "internalType": "string",
              "name": "animal",
              "type": "string"
            }
          ],
          "internalType": "struct WavePortal.FavoriteAnimal[]",
          "name": "",
          "type": "tuple[]"
        }
      ],
      "stateMutability": "view",
      "type": "function"
    },
    {
      "inputs": [],
      "name": "getFavoriteAnimal",
      "outputs": [
        {
          "internalType": "string",
          "name": "",
          "type": "string"
        }
      ],
      "stateMutability": "view",
      "type": "function"
    },
    {
      "inputs": [],
      "name": "getTotalWaves",
      "outputs": [
        {
          "internalType": "uint256",
          "name": "",
          "type": "uint256"
        }
      ],
      "stateMutability": "view",
      "type": "function"
    },
    {
      "inputs": [
        {
          "internalType": "string",
          "name": "_animal",
          "type": "string"
        }
      ],
      "name": "wave",
      "outputs": [],
      "stateMutability": "nonpayable",
      "type": "function"
    }
  ],
  "bytecode": "0x60806040526200004f6040518060400160405280601981526020017f57652068617665206265656e20636f6e737472756374656421000000000000008152506200007760201b6200076a1760201c565b606444426200005f9190620001c4565b6200006b919062000261565b60018190555062000308565b62000117816040516024016200008e919062000184565b6040516020818303038152906040527f41304fac000000000000000000000000000000000000000000000000000000007bffffffffffffffffffffffffffffffffffffffffffffffffffffffff19166020820180517bffffffffffffffffffffffffffffffffffffffffffffffffffffffff83818316178352505050506200011a60201b60201c565b50565b60008151905060006a636f6e736f6c652e6c6f679050602083016000808483855afa5050505050565b60006200015082620001a8565b6200015c8185620001b3565b93506200016e8185602086016200022b565b6200017981620002f7565b840191505092915050565b60006020820190508181036000830152620001a0818462000143565b905092915050565b600081519050919050565b600082825260208201905092915050565b6000620001d18262000221565b9150620001de8362000221565b9250827fffffffffffffffffffffffffffffffffffffffffffffffffffffffffffffffff0382111562000216576200021562000299565b5b828201905092915050565b6000819050919050565b60005b838110156200024b5780820151818401526020810190506200022e565b838111156200025b576000848401525b50505050565b60006200026e8262000221565b91506200027b8362000221565b9250826200028e576200028d620002c8565b5b828206905092915050565b7f4e487b7100000000000000000000000000000000000000000000000000000000600052601160045260246000fd5b7f4e487b7100000000000000000000000000000000000000000000000000000000600052601260045260246000fd5b6000601f19601f8301169050919050565b61137980620003186000396000f3fe608060405234801561001057600080fd5b506004361061004c5760003560e01c80633f2a7d7814610051578063449d46c01461006f578063522a33ca1461008b5780639a2cdc08146100a9575b600080fd5b6100596100c7565b6040516100669190610dbc565b60405180910390f35b61008960048036038101906100849190610b0e565b610218565b005b61009361060a565b6040516100a09190610dde565b60405180910390f35b6100b161071f565b6040516100be9190610ec0565b60405180910390f35b60606004805480602002602001604051908101604052809291908181526020016000905b8282101561020f57838290600052602060002090600302016040518060600160405290816000820160009054906101000a900473ffffffffffffffffffffffffffffffffffffffff1673ffffffffffffffffffffffffffffffffffffffff1673ffffffffffffffffffffffffffffffffffffffff1681526020016001820154815260200160028201805461017e906110a6565b80601f01602080910402602001604051908101604052809291908181526020018280546101aa906110a6565b80156101f75780601f106101cc576101008083540402835291602001916101f7565b820191906000526020600020905b8154815290600101906020018083116101da57829003601f168201915b505050505081525050815260200190600101906100eb565b50505050905090565b42610384600360003373ffffffffffffffffffffffffffffffffffffffff1673ffffffffffffffffffffffffffffffffffffffff168152602001908152602001600020546102669190610fd2565b106102a6576040517f08c379a000000000000000000000000000000000000000000000000000000000815260040161029d90610ea0565b60405180910390fd5b42600360003373ffffffffffffffffffffffffffffffffffffffff1673ffffffffffffffffffffffffffffffffffffffff1681526020019081526020016000208190555060016000808282546102fc9190610fd2565b9250508190555080600260003373ffffffffffffffffffffffffffffffffffffffff1673ffffffffffffffffffffffffffffffffffffffff1681526020019081526020016000209080519060200190610356929190610a03565b50600460405180606001604052803373ffffffffffffffffffffffffffffffffffffffff16815260200142815260200183815250908060018154018082558091505060019003906000526020600020906003020160009091909190915060008201518160000160006101000a81548173ffffffffffffffffffffffffffffffffffffffff021916908373ffffffffffffffffffffffffffffffffffffffff160217905550602082015181600101556040820151816002019080519060200190610420929190610a03565b505050606460015442446104349190610fd2565b61043e9190610fd2565b6104489190611109565b600181905550603260015411610594576104976040518060400160405280600781526020017f257320776f6e210000000000000000000000000000000000000000000000000081525033610803565b6000655af3107a40009050478111156104e5576040517f08c379a00000000000000000000000000000000000000000000000000000000081526004016104dc90610e60565b60405180910390fd5b60003373ffffffffffffffffffffffffffffffffffffffff168260405161050b90610d62565b60006040518083038185875af1925050503d8060008114610548576040519150601f19603f3d011682016040523d82523d6000602084013e61054d565b606091505b5050905080610591576040517f08c379a000000000000000000000000000000000000000000000000000000000815260040161058890610e80565b60405180910390fd5b50505b3373ffffffffffffffffffffffffffffffffffffffff167fb1255db848a0f038fd6de58548abc2a599e2c92756d293823e66137f88cfda2442836040516105dc929190610edb565b60405180910390a26106073360405180606001604052806026815260200161131e602691398361089f565b50565b60606000600260003373ffffffffffffffffffffffffffffffffffffffff1673ffffffffffffffffffffffffffffffffffffffff1681526020019081526020016000208054610658906110a6565b80601f0160208091040260200160405190810160405280929190818152602001828054610684906110a6565b80156106d15780601f106106a6576101008083540402835291602001916106d1565b820191906000526020600020905b8154815290600101906020018083116106b457829003601f168201915b50505050509050610718336040518060400160405280601a81526020017f2773206661766f7269746520616e696d616c20697320746865200000000000008152508361089f565b8091505090565b60006107626040518060400160405280601881526020017f5765206861766520256420746f74616c2077617665732120000000000000000081525060005461093e565b600054905090565b6108008160405160240161077e9190610dde565b6040516020818303038152906040527f41304fac000000000000000000000000000000000000000000000000000000007bffffffffffffffffffffffffffffffffffffffffffffffffffffffff19166020820180517bffffffffffffffffffffffffffffffffffffffffffffffffffffffff83818316178352505050506109da565b50565b61089b8282604051602401610819929190610e00565b6040516020818303038152906040527f319af333000000000000000000000000000000000000000000000000000000007bffffffffffffffffffffffffffffffffffffffffffffffffffffffff19166020820180517bffffffffffffffffffffffffffffffffffffffffffffffffffffffff83818316178352505050506109da565b5050565b6109398383836040516024016108b793929190610d77565b6040516020818303038152906040527ffb772265000000000000000000000000000000000000000000000000000000007bffffffffffffffffffffffffffffffffffffffffffffffffffffffff19166020820180517bffffffffffffffffffffffffffffffffffffffffffffffffffffffff83818316178352505050506109da565b505050565b6109d68282604051602401610954929190610e30565b6040516020818303038152906040527f9710a9d0000000000000000000000000000000000000000000000000000000007bffffffffffffffffffffffffffffffffffffffffffffffffffffffff19166020820180517bffffffffffffffffffffffffffffffffffffffffffffffffffffffff83818316178352505050506109da565b5050565b60008151905060006a636f6e736f6c652e6c6f679050602083016000808483855afa5050505050565b828054610a0f906110a6565b90600052602060002090601f016020900481019282610a315760008555610a78565b82601f10610a4a57805160ff1916838001178555610a78565b82800160010185558215610a78579182015b82811115610a77578251825591602001919060010190610a5c565b5b509050610a859190610a89565b5090565b5b80821115610aa2576000816000905550600101610a8a565b5090565b6000610ab9610ab484610f30565b610f0b565b905082815260208101848484011115610ad157600080fd5b610adc848285611064565b509392505050565b600082601f830112610af557600080fd5b8135610b05848260208601610aa6565b91505092915050565b600060208284031215610b2057600080fd5b600082013567ffffffffffffffff811115610b3a57600080fd5b610b4684828501610ae4565b91505092915050565b6000610b5b8383610cf4565b905092915050565b610b6c81611028565b82525050565b610b7b81611028565b82525050565b6000610b8c82610f71565b610b968185610f94565b935083602082028501610ba885610f61565b8060005b85811015610be45784840389528151610bc58582610b4f565b9450610bd083610f87565b925060208a01995050600181019050610bac565b50829750879550505050505092915050565b6000610c0182610f7c565b610c0b8185610fb0565b9350610c1b818560208601611073565b610c24816111f6565b840191505092915050565b6000610c3a82610f7c565b610c448185610fc1565b9350610c54818560208601611073565b610c5d816111f6565b840191505092915050565b6000610c75603583610fc1565b9150610c8082611207565b604082019050919050565b6000610c98602883610fc1565b9150610ca382611256565b604082019050919050565b6000610cbb604383610fc1565b9150610cc6826112a5565b606082019050919050565b6000610cde600083610fa5565b9150610ce98261131a565b600082019050919050565b6000606083016000830151610d0c6000860182610b63565b506020830151610d1f6020860182610d44565b5060408301518482036040860152610d378282610bf6565b9150508091505092915050565b610d4d8161105a565b82525050565b610d5c8161105a565b82525050565b6000610d6d82610cd1565b9150819050919050565b6000606082019050610d8c6000830186610b72565b8181036020830152610d9e8185610c2f565b90508181036040830152610db28184610c2f565b9050949350505050565b60006020820190508181036000830152610dd68184610b81565b905092915050565b60006020820190508181036000830152610df88184610c2f565b905092915050565b60006040820190508181036000830152610e1a8185610c2f565b9050610e296020830184610b72565b9392505050565b60006040820190508181036000830152610e4a8185610c2f565b9050610e596020830184610d53565b9392505050565b60006020820190508181036000830152610e7981610c68565b9050919050565b60006020820190508181036000830152610e9981610c8b565b9050919050565b60006020820190508181036000830152610eb981610cae565b9050919050565b6000602082019050610ed56000830184610d53565b92915050565b6000604082019050610ef06000830185610d53565b8181036020830152610f028184610c2f565b90509392505050565b6000610f15610f26565b9050610f2182826110d8565b919050565b6000604051905090565b600067ffffffffffffffff821115610f4b57610f4a6111c7565b5b610f54826111f6565b9050602081019050919050565b6000819050602082019050919050565b600081519050919050565b600081519050919050565b6000602082019050919050565b600082825260208201905092915050565b600081905092915050565b600082825260208201905092915050565b600082825260208201905092915050565b6000610fdd8261105a565b9150610fe88361105a565b9250827fffffffffffffffffffffffffffffffffffffffffffffffffffffffffffffffff0382111561101d5761101c61113a565b5b828201905092915050565b60006110338261103a565b9050919050565b600073ffffffffffffffffffffffffffffffffffffffff82169050919050565b6000819050919050565b82818337600083830152505050565b60005b83811015611091578082015181840152602081019050611076565b838111156110a0576000848401525b50505050565b600060028204905060018216806110be57607f821691505b602082108114156110d2576110d1611198565b5b50919050565b6110e1826111f6565b810181811067ffffffffffffffff82111715611100576110ff6111c7565b5b80604052505050565b60006111148261105a565b915061111f8361105a565b92508261112f5761112e611169565b5b828206905092915050565b7f4e487b7100000000000000000000000000000000000000000000000000000000600052601160045260246000fd5b7f4e487b7100000000000000000000000000000000000000000000000000000000600052601260045260246000fd5b7f4e487b7100000000000000000000000000000000000000000000000000000000600052602260045260246000fd5b7f4e487b7100000000000000000000000000000000000000000000000000000000600052604160045260246000fd5b6000601f19601f8301169050919050565b7f547279696e6720746f207769746864726177206d6f7265206d6f6e657920746860008201527f616e2074686520636f6e7472616374206861732e200000000000000000000000602082015250565b7f4661696c656420746f207769746864726177206d6f6e65792066726f6d20636f60008201527f6e74726163742e20000000000000000000000000000000000000000000000000602082015250565b7f506c656173652077616974203135206d696e75746573206265666f726520737560008201527f626d697474696e6720796f7572206661766f7269746520616e696d616c20616760208201527f61696e0000000000000000000000000000000000000000000000000000000000604082015250565b5056fe2068617320776176656421205468656972206661766f7269746520616e696d616c2069733a20a2646970667358221220839f465c9a0e9d5d36ea0ef6f915d17d13ec64f7cd7934c313e83d2c6cd49d6f64736f6c63430008040033",
  "linkReferences": {},
  "deployedLinkReferences": {}
}