{
  "_format": "hh-sol-artifact-1",
  "contractName": "WavePortal",
  "sourceName": "contracts/WavePortal.sol",
  "abi": [
    {
      "inputs": [],
      "stateMutability": "nonpayable",
      "type": "constructor"
    },
    {
      "inputs": [],
      "name": "getFavoriteAnimal",
      "outputs": [
        {
          "internalType": "string",
          "name": "",
          "type": "string"
        }
      ],
      "stateMutability": "view",
      "type": "function"
    },
    {
      "inputs": [],
      "name": "getTotalWaves",
      "outputs": [
        {
          "internalType": "uint256",
          "name": "",
          "type": "uint256"
        }
      ],
      "stateMutability": "view",
      "type": "function"
    },
    {
      "inputs": [
        {
          "internalType": "string",
          "name": "_animal",
          "type": "string"
        }
      ],
      "name": "wave",
      "outputs": [],
      "stateMutability": "nonpayable",
      "type": "function"
    }
  ],
  "bytecode": "0x608060405234801561001057600080fd5b506100596040518060400160405280600d81526020017f417979797979204c4d414f21200000000000000000000000000000000000000081525061005e60201b6102911760201c565b6101e1565b6100fa81604051602401610072919061015f565b6040516020818303038152906040527f41304fac000000000000000000000000000000000000000000000000000000007bffffffffffffffffffffffffffffffffffffffffffffffffffffffff19166020820180517bffffffffffffffffffffffffffffffffffffffffffffffffffffffff83818316178352505050506100fd60201b60201c565b50565b60008151905060006a636f6e736f6c652e6c6f679050602083016000808483855afa5050505050565b600061013182610181565b61013b818561018c565b935061014b81856020860161019d565b610154816101d0565b840191505092915050565b600060208201905081810360008301526101798184610126565b905092915050565b600081519050919050565b600082825260208201905092915050565b60005b838110156101bb5780820151818401526020810190506101a0565b838111156101ca576000848401525b50505050565b6000601f19601f8301169050919050565b610986806101f06000396000f3fe608060405234801561001057600080fd5b50600436106100415760003560e01c8063449d46c014610046578063522a33ca146100625780639a2cdc0814610080575b600080fd5b610060600480360381019061005b9190610599565b61009e565b005b61006a610131565b6040516100779190610676565b60405180910390f35b610088610246565b60405161009591906106c8565b60405180910390f35b60016000808282546100b09190610755565b9250508190555080600160003373ffffffffffffffffffffffffffffffffffffffff1673ffffffffffffffffffffffffffffffffffffffff168152602001908152602001600020908051906020019061010a92919061048e565b5061012e3360405180606001604052806026815260200161092b602691398361032a565b50565b60606000600160003373ffffffffffffffffffffffffffffffffffffffff1673ffffffffffffffffffffffffffffffffffffffff168152602001908152602001600020805461017f90610829565b80601f01602080910402602001604051908101604052809291908181526020018280546101ab90610829565b80156101f85780601f106101cd576101008083540402835291602001916101f8565b820191906000526020600020905b8154815290600101906020018083116101db57829003601f168201915b5050505050905061023f336040518060400160405280601a81526020017f2773206661766f7269746520616e696d616c20697320746865200000000000008152508361032a565b8091505090565b60006102896040518060400160405280601881526020017f5765206861766520256420746f74616c207761766573212000000000000000008152506000546103c9565b600054905090565b610327816040516024016102a59190610676565b6040516020818303038152906040527f41304fac000000000000000000000000000000000000000000000000000000007bffffffffffffffffffffffffffffffffffffffffffffffffffffffff19166020820180517bffffffffffffffffffffffffffffffffffffffffffffffffffffffff8381831617835250505050610465565b50565b6103c483838360405160240161034293929190610631565b6040516020818303038152906040527ffb772265000000000000000000000000000000000000000000000000000000007bffffffffffffffffffffffffffffffffffffffffffffffffffffffff19166020820180517bffffffffffffffffffffffffffffffffffffffffffffffffffffffff8381831617835250505050610465565b505050565b61046182826040516024016103df929190610698565b6040516020818303038152906040527f9710a9d0000000000000000000000000000000000000000000000000000000007bffffffffffffffffffffffffffffffffffffffffffffffffffffffff19166020820180517bffffffffffffffffffffffffffffffffffffffffffffffffffffffff8381831617835250505050610465565b5050565b60008151905060006a636f6e736f6c652e6c6f679050602083016000808483855afa5050505050565b82805461049a90610829565b90600052602060002090601f0160209004810192826104bc5760008555610503565b82601f106104d557805160ff1916838001178555610503565b82800160010185558215610503579182015b828111156105025782518255916020019190600101906104e7565b5b5090506105109190610514565b5090565b5b8082111561052d576000816000905550600101610515565b5090565b600061054461053f84610708565b6106e3565b90508281526020810184848401111561055c57600080fd5b6105678482856107e7565b509392505050565b600082601f83011261058057600080fd5b8135610590848260208601610531565b91505092915050565b6000602082840312156105ab57600080fd5b600082013567ffffffffffffffff8111156105c557600080fd5b6105d18482850161056f565b91505092915050565b6105e3816107ab565b82525050565b60006105f482610739565b6105fe8185610744565b935061060e8185602086016107f6565b61061781610919565b840191505092915050565b61062b816107dd565b82525050565b600060608201905061064660008301866105da565b818103602083015261065881856105e9565b9050818103604083015261066c81846105e9565b9050949350505050565b6000602082019050818103600083015261069081846105e9565b905092915050565b600060408201905081810360008301526106b281856105e9565b90506106c16020830184610622565b9392505050565b60006020820190506106dd6000830184610622565b92915050565b60006106ed6106fe565b90506106f9828261085b565b919050565b6000604051905090565b600067ffffffffffffffff821115610723576107226108ea565b5b61072c82610919565b9050602081019050919050565b600081519050919050565b600082825260208201905092915050565b6000610760826107dd565b915061076b836107dd565b9250827fffffffffffffffffffffffffffffffffffffffffffffffffffffffffffffffff038211156107a05761079f61088c565b5b828201905092915050565b60006107b6826107bd565b9050919050565b600073ffffffffffffffffffffffffffffffffffffffff82169050919050565b6000819050919050565b82818337600083830152505050565b60005b838110156108145780820151818401526020810190506107f9565b83811115610823576000848401525b50505050565b6000600282049050600182168061084157607f821691505b60208210811415610855576108546108bb565b5b50919050565b61086482610919565b810181811067ffffffffffffffff82111715610883576108826108ea565b5b80604052505050565b7f4e487b7100000000000000000000000000000000000000000000000000000000600052601160045260246000fd5b7f4e487b7100000000000000000000000000000000000000000000000000000000600052602260045260246000fd5b7f4e487b7100000000000000000000000000000000000000000000000000000000600052604160045260246000fd5b6000601f19601f830116905091905056fe2068617320776176656421205468656972206661766f7269746520616e696d616c2069733a20a26469706673582212206edf10b3b3db35b4a835dca8256b6b7cfcd6915969ebbeb30fdf2c32ef0e8a1a64736f6c63430008040033",
  "linkReferences": {},
  "deployedLinkReferences": {}
}